:100000000C9435000C945D000C945D000C945D0024
:100010000C945D000C945D000C945D000C945D00EC
:100020000C945D000C945D000C945D000C945D00DC
:100030000C945D000C945D000C945D000C945D00CC
:100040000C9430020C945D000C94A0020C947A0283
:100050000C945D000C945D000C945D000C945D00AC
:100060000C945D000C945D00DF0311241FBECFEFE4
:10007000D8E0DEBFCDBF11E0A0E0B1E0ECE6F8E0F3
:1000800002C005900D92A232B107D9F721E0A2E299
:10009000B1E001C01D92AA3CB207E1F710E0C5E350
:1000A000D0E004C02197FE010E942E04C433D10782
:1000B000C9F70E94D2020C9434040C9400008E30D4
:1000C00008F08E508770806480937C0080917A0065
:1000D000806480937A0080917A0086FDFCCF8091C5
:1000E00078009091790008953FB7F89480912901A4
:1000F00090912A01A0912B01B0912C0126B5A89BCB
:1001000005C02F3F19F00196A11DB11D3FBFBA2FA9
:10011000A92F982F8827BC01CD01620F711D811D69
:10012000911D42E0660F771F881F991F4A95D1F7EE
:100130000895AF92BF92CF92DF92EF92FF920F930A
:100140001F93CF93DF936C017B018B01040F151F6D
:10015000EB015E01AE18BF08C017D10759F06991D5
:10016000D601ED91FC910190F081E02DC601099539
:10017000892B79F7C501DF91CF911F910F91FF90E6
:10018000EF90DF90CF90BF90AF900895FC01538D1A
:10019000448D252F30E0842F90E0821B930B541761
:1001A00010F0CF96089501970895FC01918D828DEE
:1001B000981761F0A28DAE0FBF2FB11D5D968C9187
:1001C000928D9F5F9F73928F90E008958FEF9FEFC6
:1001D0000895FC01918D828D981731F0828DE80F82
:1001E000F11D858D90E008958FEF9FEF0895FC013C
:1001F000918D228D892F90E0805C9F4F821B910909
:100200008F73992708958DE291E00E94F70021E015
:10021000892B09F420E0822F089580E090E0892B5B
:1002200029F00E94030181110C9400000895FC0143
:10023000A48DA80FB92FB11DA35ABF4F2C91848D47
:1002400090E001968F739927848FA689B7892C93A4
:10025000A089B1898C91837080648C93938D848DF7
:10026000981306C00288F389E02D80818F7D8083FA
:100270000895EF92FF920F931F93CF93DF93EC01BA
:1002800081E0888F9B8D8C8D98131AC0E889F9893D
:10029000808185FF15C09FB7F894EE89FF89608340
:1002A000E889F98980818370806480839FBF81E0C1
:1002B00090E0DF91CF911F910F91FF90EF90089503
:1002C000F62E0B8D10E00F5F1F4F0F731127E02EDE
:1002D0008C8D8E110CC00FB607FCFACFE889F98916
:1002E000808185FFF5CFCE010E941701F1CFEB8D04
:1002F000EC0FFD2FF11DE35AFF4FF0829FB7F894EA
:100300000B8FEA89FB8980818062CFCFCF93DF9307
:10031000EC01888D8823B9F0AA89BB89E889F9891D
:100320008C9185FD03C0808186FD0DC00FB607FC52
:10033000F7CF8C9185FFF2CF808185FFEDCFCE0185
:100340000E941701E9CFDF91CF910895FC01019040
:100350000020E9F73197AF01481B590BBC018DE232
:1003600091E00C9499008F929F92AF92BF92CF929E
:10037000DF92EF92FF920F931F93CF93DF93CDB74E
:10038000DEB7A1970FB6F894DEBF0FBECDBF6C01EC
:10039000990FEE08FF08F7FE41C06DE28DE291E093
:1003A0000E9439018C0122273327A9012C193D090C
:1003B0004E095F0919A2CE0181967C019AE0892E2F
:1003C000912CA12CB12CCA01B901A50194010E9464
:1003D0000C04605DF70162937F0121153105410531
:1003E000510589F790E080E0309719F0CF010E9425
:1003F000A601800F911FA1960FB6F894DEBF0FBE25
:10040000CDBFDF91CF911F910F91FF90EF90DF90C3
:10041000CF90BF90AF909F908F900895A7019601C5
:1004200019A28E010F5D1F4F8AE0C82ED12CE12C3E
:10043000F12CCA01B901A70196010E940C04605D6C
:10044000F80162938F01211531054105510589F7A6
:1004500090E080E0309779F2CF010E94A601CBCFE7
:100460001F920F920FB60F9211242F933F938F93E9
:100470009F93AF93BF938091250190912601A09106
:100480002701B09128013091240123E0230F2D375B
:1004900058F50196A11DB11D2093240180932501DB
:1004A00090932601A0932701B09328018091290100
:1004B00090912A01A0912B01B0912C010196A11DD0
:1004C000B11D8093290190932A01A0932B01B09331
:1004D0002C01BF91AF919F918F913F912F910F90E0
:1004E0000FBE0F901F90189526E8230F0296A11DAE
:1004F000B11DD2CF1F920F920FB60F9211242F93DE
:100500003F934F935F936F937F938F939F93AF939B
:10051000BF93EF93FF938DE291E00E941701FF914B
:10052000EF91BF91AF919F918F917F916F915F916B
:100530004F913F912F910F900FBE0F901F901895E4
:100540001F920F920FB60F9211242F938F939F93A8
:10055000EF93FF93E0913D01F0913E018081E091A6
:100560004301F091440182FD1BC0908180914601BE
:100570008F5F8F7320914701821741F0E091460110
:10058000F0E0E35DFE4F958F80934601FF91EF9180
:100590009F918F912F910F900FBE0F901F901895E4
:1005A0008081F4CF789484B5826084BD84B5816005
:1005B00084BD85B5826085BD85B5816085BD80912E
:1005C0006E00816080936E001092810080918100A6
:1005D000826080938100809181008160809381009E
:1005E000809180008160809380008091B100846060
:1005F0008093B1008091B00081608093B0008091C1
:100600007A00846080937A0080917A00826080937F
:100610007A0080917A00816080937A0080917A00DC
:10062000806880937A001092C100E0913D01F091C2
:100630003E0182E08083E0913901F0913A0110821D
:10064000E0913B01F0913C018FEC808310924501D9
:10065000E0914101F091420186E08083E0913F0109
:10066000F0914001808180618083E0913F01F091B1
:100670004001808188608083E0913F01F0914001DA
:10068000808180688083E0913F01F091400180810A
:100690008F7D8083C0E0D0E080E00E945F007C011D
:1006A000909323018093220181E00E945F00909348
:1006B00009018093080182E00E945F009093070186
:1006C0008093060183E00E945F0090930501809370
:1006D000040184E00E945F00909303018093020173
:1006E00085E00E945F009093010180930001C701A3
:1006F0000E94B3018CE191E00E94A6018091080163
:10070000909109010E94B3018CE191E00E94A60141
:1007100080910601909107010E94B3018CE191E064
:100720000E94A60180910401909105010E94B301ED
:100730008CE191E00E94A601809102019091030159
:100740000E94B3018CE191E00E94A601809100011A
:10075000909101010E94B3018EE191E00E94A601F7
:100760000E9474004B015C0184E6C82ED12CE12C60
:10077000F12C0E947400681979098A099B09683E66
:10078000734081059105A8F321E0C21AD108E10860
:10079000F10888EE880E83E0981EA11CB11CC114DC
:1007A000D104E104F10429F7209709F475CF0E94E0
:1007B0000301882309F470CF0E9400006DCFEDE2A1
:1007C000F1E01382128288EE93E0A0E0B0E084832F
:1007D0009583A683B7838EE091E09183808385EC37
:1007E00090E09587848784EC90E09787868780ECFB
:1007F00090E0918B808B81EC90E0938B828B82ECEC
:1008000090E0958B848B86EC90E0978B868B118E95
:10081000128E138E148E0895A1E21A2EAA1BBB1BF2
:10082000FD010DC0AA1FBB1FEE1FFF1FA217B307BC
:10083000E407F50720F0A21BB30BE40BF50B661FD2
:10084000771F881F991F1A9469F760957095809596
:1008500090959B01AC01BD01CF010895EE0FFF1FE4
:0C0860000590F491E02D0994F894FFCF6E
:10086C000500040003000200010000000000390133
:10087C009900C6008601F700D500E9002C000D0A8E
:02088C0000006A
:00000001FF
